:020000040000FA
:1000000000008A1103280630FE000130FF00803016
:100010008A110000B2208A11000083120313A1008C
:100020007F08A0000830A2000130A3008312031350
:100030002008A4002108A500FF30A007031CA1038D
:100040002508240403199B2804302207A400A501D5
:10005000A50D2308A5072408FE002508FF00803011
:100060008A110000B2208A11000083120313A70036
:100070007F08A6002208FE002308FF0080308A11B6
:100080000000B2208A11000083120313A900A5000A
:100090007F08A400A80002302207A400A501A50D36
:1000A0002308A5072408FE002508FF0080308A11D8
:1000B0000000B2208A11000083120313A500AB00D8
:1000C0007F08AA00A400831203132608AA002708A9
:1000D000AB00FF30A607031CA7032B082A04031953
:1000E00094282808FE002908FF0080308A110000AB
:1000F0009F208A11000083120313AA002408831290
:1001000003138400831383120313251883172A080B
:1001100083120313800083120313A80A0319A90A88
:10012000A40A0319A50A6328063083120313A20741
:100130000318A30A16288A110000D3280800003AE1
:100140000319A628803A0319AD2800347E088400DC
:1001500083137F188317000808007F088A007E0831
:1001600082000800003A0319BA28803A0319C4280B
:10017000FF0100347E08840083137F188317000872
:10018000FF00840A000808008A110000AD20FD006D
:10019000FE0FFF03FF0A8A110000AD20FC007D085E
:1001A000FF007C0808008316031307108312031353
:1001B00007108312031307143030FF0075308A11C3
:1001C000ED208A118312031307103030FF007530C1
:1001D0008A11ED208A11D928080083120313AD007B
:1001E0007F08AC00AE01AF01831203132D082F026C
:1001F000031DFC282C082E02031805290000831279
:100200000313AE0A0319AF0AF428080001340034BE
:0E0210000E3401343034003401340034003434
:02400E00F43F7D
:00000001FF
